:100000000C945D000C94AC030C9485030C94850057
:100010000C9485000C9485000C9485000C9485004C
:100020000C9485000C9485000C9485000C9485003C
:100030000C9485000C94D3030C9485000C948500DB
:100040000C943B030C9485000C9409030C94E3027C
:100050000C9485000C9485000C9485000C9485000C
:100060000C9485000C9485000000000024002700FB
:100070002A0000000000250028002B0004040404CE
:100080000404040402020202020203030303030342
:10009000010204081020408001020408102001021F
:1000A00004081020000000080002010000030407FB
:1000B0000000000000000000220511241FBECFEF49
:1000C000D8E0DEBFCDBF22E0AEE9B1E001C01D92B5
:1000D000A335B207E1F711E0A0E0B1E0EEE9FFE0FF
:1000E00002C005900D92AE39B107D9F710E0CDE509
:1000F000D0E004C02197FE010E94BB05CC35D1079A
:10010000C9F70E94FA030C94CD070C940000E1EBB0
:10011000F0E02491EDE9F0E09491E9E8F0E0E49179
:10012000EE2309F43BC0222339F1233091F038F457
:100130002130A9F0223001F524B52F7D12C02730DF
:1001400091F02830A1F02430B9F4209180002F7D67
:1001500003C0209180002F77209380000DC024B52C
:100160002F7724BD09C02091B0002F7703C02091C4
:10017000B0002F7D2093B000F0E0EE0FFF1FEE588F
:10018000FF4FA591B4912FB7F894EC91811103C062
:1001900090959E2301C09E2B9C932FBF089581E0D4
:1001A00080939E0180919F018823B1F08091B001DE
:1001B0009091B101181619067CF42091A00130919C
:1001C000A101232B49F001979093B1018093B001D5
:1001D00010929F0110929E018AE090E09093A101FD
:1001E0008093A001089581E080939F0180919E01FA
:1001F0008823B1F08091B0019091B10182339105D3
:100200007CF42091A0013091A101232B49F00196AB
:100210009093B1018093B00110929F0110929E01C2
:100220008AE090E09093A1018093A00108958091CD
:10023000A0019091A1011816190634F4019790932A
:10024000A1018093A001089510929F0110929E0138
:100250000895CF92DF92EF92FF920F931F93CF9367
:10026000DF936C017A018B01C0E0D0E0CE15DF0591
:1002700089F0D8016D918D01D601ED91FC9101902D
:10028000F081E02DC6010995892B11F47E0102C091
:100290002196ECCFC701DF91CF911F910F91FF9075
:1002A000EF90DF90CF900895089580E090E008955A
:1002B000FC01538D448D252F30E0842F90E0821B6C
:1002C000930B541710F0CF96089501970895FC01F1
:1002D000918D828D981761F0828DDF01A80FB11D7D
:1002E0005D968C91928D9F5F9F73928F90E00895A1
:1002F0008FEF9FEF0895FC01918D828D981731F05B
:10030000828DE80FF11D858D90E008958FEF9FEFAE
:100310000895FC01918D228D892F90E0805C9F4F84
:10032000821B91098F739927089582EB91E00E94B7
:10033000890121E0892B09F420E0822F0895FC0136
:10034000848DDF01A80FB11DA35ABF4F2C91848D5E
:1003500090E001968F739927848FA689B7892C9393
:10036000A089B1898C9180648C93938D848D98132E
:1003700006C00288F389E02D80818F7D80830895F7
:10038000EF92FF920F931F93CF93DF93EC0181E0E5
:10039000888F9B8D8C8D981305C0E889F9898081A1
:1003A00085FD24C0F62E0B8D10E00F5F1F4F0F73DD
:1003B0001127E02E8C8DE8120CC00FB607FCFACF87
:1003C000E889F989808185FFF5CFCE010E949F01E0
:1003D000F1CF8B8DFE01E80FF11DE35AFF4FF08244
:1003E0000B8FEA89FB898081806207C0EE89FF89D3
:1003F0006083E889F98980818064808381E090E06E
:10040000DF91CF911F910F91FF90EF900895CF93BF
:10041000DF93EC01888D8823C9F0EA89FB8980810C
:1004200085FD05C0A889B9898C9186FD0FC00FB6DE
:1004300007FCF5CF808185FFF2CFA889B9898C911F
:1004400085FFEDCFCE010E949F01E7CFDF91CF91D5
:10045000089580E090E0892B29F00E949501811198
:100460000C9400000895CF93DF9390E0FC01E057D7
:10047000FF4F2491FC01E458FF4F8491882361F1E0
:1004800090E0880F991FFC01E859FF4FC591D49166
:10049000FC01EE58FF4FA591B491611109C09FB7BF
:1004A000F8948881209582238883EC912E230BC0B9
:1004B000623061F49FB7F8943881822F809583234E
:1004C0008883EC912E2B2C939FBF06C08FB7F89496
:1004D000E8812E2B28838FBFDF91CF9108953FB7FE
:1004E000F8948091A7019091A801A091A901B091E1
:1004F000AA0126B5A89B05C02F3F19F00196A11DA2
:10050000B11D3FBFBA2FA92F982F8827820F911DA9
:10051000A11DB11DBC01CD0142E0660F771F881FF0
:10052000991F4A95D1F708958F929F92AF92BF92EB
:10053000CF92DF92EF92FF926B017C010E946F02DB
:100540004B015C01C114D104E104F104F1F00E94FB
:100550006F02DC01CB0188199909AA09BB09883E01
:100560009340A105B10570F321E0C21AD108E1085A
:10057000F10888EE880E83E0981EA11CB11CC114FE
:10058000D104E104F10419F7DDCFFF90EF90DF9083
:10059000CF90BF90AF909F908F900895089500974F
:1005A00069F0FC0101900020E9F73197AF01481B89
:1005B000590BBC0182EB91E00C94290180E090E0A2
:1005C00008950E94B8071F920F920FB60F92112440
:1005D0002F933F934F935F936F937F938F939F934B
:1005E000AF93BF93EF93FF9382EB91E00E949F0143
:1005F000FF91EF91BF91AF919F918F917F916F91FB
:100600005F914F913F912F910F900FBE0F901F90D0
:1006100018951F920F920FB60F9211242F938F935C
:100620009F93EF93FF93E091C201F091C30180810A
:10063000E091C801F091C90182FD12C090818091C2
:10064000CB018F5F8F732091CC01821751F0E09125
:10065000CB01F0E0EE54FE4F958F8093CB0101C0AB
:100660008081FF91EF919F918F912F910F900FBEFD
:100670000F901F9018951F920F920FB60F92112492
:100680002F933F938F939F93AF93BF938091A30139
:100690009091A401A091A501B091A6013091A20171
:1006A00023E0230F2D3720F40196A11DB11D05C0B5
:1006B00026E8230F0296A11DB11D2093A20180936D
:1006C000A3019093A401A093A501B093A6018091EA
:1006D000A7019091A801A091A901B091AA0101964A
:1006E000A11DB11D8093A7019093A801A093A9011A
:1006F000B093AA01BF91AF919F918F913F912F919C
:100700000F900FBE0F901F9018951F920F920FB66B
:100710000F9211242F933F934F935F936F937F9387
:100720008F939F93AF93BF93EF93FF93E091020159
:10073000F09103010995FF91EF91BF91AF919F91C6
:100740008F917F916F915F914F913F912F910F907A
:100750000FBE0F901F9018951F920F920FB60F9219
:1007600011242F933F934F935F936F937F938F93B6
:100770009F93AF93BF93EF93FF93E0910001F091AC
:1007800001010995FF91EF91BF91AF919F918F91D9
:100790007F916F915F914F913F912F910F900FBE7D
:1007A0000F901F9018951F920F920FB60F92112461
:1007B0002F933F934F935F936F937F938F939F9369
:1007C000AF93BF93EF93FF93E091AB01F091AC0136
:1007D0000995FF91EF91BF91AF919F918F917F917B
:1007E0006F915F914F913F912F910F900FBE0F909E
:1007F0001F901895CF93DF93CDB7DEB762970FB6F2
:10080000F894DEBF0FBECDBF789484B5826084BDFE
:1008100084B5816084BD85B5826085BD85B5816004
:1008200085BD80916E00816080936E001092810082
:10083000809181008260809381008091810081603D
:1008400080938100809180008160809380008091FE
:10085000B10084608093B1008091B000816080938A
:10086000B00080917A00846080937A0080917A0051
:10087000826080937A0080917A00816080937A0010
:1008800080917A00806880937A001092C10062E0C3
:1008900082E00E94330262E083E00E94330261E062
:1008A0008DE00E9433028FEC90E0909301018093E1
:1008B000000180916900836080936900E89A83EF6A
:1008C00090E09093030180930201809169008C6015
:1008D00080936900E99A80E1809381001092800002
:1008E00083E08093AF0184ED90E39093AE01809319
:1008F000AD01909387008093860083E1809381000F
:1009000087E191E09093AC018093AB0181E080930B
:100910006F00E091C201F091C30182E08083E09119
:10092000BE01F091BF011082E091C001F091C101C0
:100930008FEC80831092CA01E091C601F091C7014B
:1009400086E08083E091C401F091C50180818061DF
:100950008083E091C401F091C5018081886080832B
:10096000E091C401F091C501808180688083E091AD
:10097000C401F091C50180818F7D8083CE010196F5
:100980006C018091B00180FD02C081E001C080E077
:100990000E9487008CE191E00E94CF0286E491E002
:1009A0000E94CF0264EF71E080E090E00E94940228
:1009B00089E491E00E94CF0286E491E00E94CF0298
:1009C00064E670E080E090E00E94940287E591E0A8
:1009D0000E94CF024AE0B6018091B0019091B1012E
:1009E0000E944F05F60101900020E9F731978F0131
:1009F0000C191D09B8016F5F7F4F80E090E00E94E5
:100A0000EE067C01009731F0FC011082B6010E94D5
:100A1000C60702C000E010E0A801B70182EB91E038
:100A20000E94290186E491E00E94CF02C7010E9442
:100A3000560660E177E280E090E00E9494020E9416
:100A400029029FCFE2EBF1E01382128288EE93E05D
:100A5000A0E0B0E084839583A683B7838EE091E025
:100A60009183808385EC90E09587848784EC90E087
:100A70009787868780EC90E0918B808B81EC90E06B
:100A8000938B828B82EC90E0958B848B86EC90E04C
:100A9000978B868B118E128E138E148E0895BB2722
:100AA0004A3031F4992322F4BDE2909581959F4F0D
:100AB0000C945B05BB27FB015527AA27880F991FBC
:100AC000AA1FA41710F0A41B83955051B9F7A05D7D
:100AD000AA3308F0A95DA193009779F7B111B193FA
:100AE0001192CB010C947405DC01FC01672F71910C
:100AF0007723E1F7329704C07C916D937083629104
:100B0000AE17BF07C8F308952F923F924F925F929E
:100B10006F927F928F929F92AF92BF92CF92DF920D
:100B2000EF92FF920F931F93CF93DF93CDB7DEB772
:100B3000CA1BDB0B0FB6F894DEBF0FBECDBF099406
:100B40002A88398848885F846E847D848C849B845D
:100B5000AA84B984C884DF80EE80FD800C811B816B
:100B6000AA81B981CE0FD11D0FB6F894DEBF0FBE9A
:100B7000CDBFED010895EE0FFF1F0590F491E02D1C
:100B80000994CF93DF938230910510F482E090E0D6
:100B9000E0915102F091520220E030E0C0E0D0E05C
:100BA000309711F14081518148175907C0F048171B
:100BB000590761F482819381209719F09B838A837E
:100BC0002BC0909352028093510226C0211531050B
:100BD00019F04217530718F49A01BE01DF01EF0123
:100BE0000280F381E02DDCCF2115310509F1281BAE
:100BF000390B2430310590F412968D919C91139706
:100C00006115710521F0FB019383828304C09093E9
:100C1000520280935102FD01329644C0FD01E20F61
:100C2000F31F81939193225031092D933C933AC045
:100C300020914F0230915002232B41F42091060164
:100C4000309107013093500220934F02209104010C
:100C5000309105012115310541F42DB73EB7409182
:100C6000080150910901241B350BE0914F02F091CE
:100C70005002E217F307A0F42E1B3F0B2817390789
:100C800078F0AC014E5F5F4F2417350748F04E0FE8
:100C90005F1F5093500240934F028193919302C083
:100CA000E0E0F0E0CF01DF91CF9108950F931F9323
:100CB000CF93DF93009709F48CC0FC013297138225
:100CC000128200915102109152020115110581F416
:100CD00020813181820F931F20914F023091500269
:100CE0002817390779F5F0935002E0934F0271C04D
:100CF000D80140E050E0AE17BF0750F412962D9196
:100D00003C911397AD012115310509F1D901F3CFBC
:100D10009D01DA013383228360817181860F971FE1
:100D20008217930769F4EC0128813981260F371F58
:100D30002E5F3F4F318320838A819B8193838283FF
:100D4000452B29F4F0935202E093510242C01396CE
:100D5000FC93EE931297ED01499159919E01240F56
:100D6000351FE217F30771F480819181840F951F7D
:100D7000029611969C938E938281938113969C93F5
:100D80008E931297E0E0F0E0D80112968D919C913D
:100D90001397009719F0F8018C01F6CF8D919C9173
:100DA00098012E5F3F4F820F931F20914F02309189
:100DB00050022817390769F4309729F4109252022B
:100DC0001092510202C013821282109350020093BB
:100DD0004F02DF91CF911F910F910895A0E0B0E0F5
:100DE000E4EFF6E00C948805EC01009721F4CB01C8
:100DF0000E94C105B8C0FC01E60FF71F9C012250FC
:100E00003109E217F30708F4ACC0D9010D911C9128
:100E1000119706171707B0F00530110508F49FC0A9
:100E2000C80104978617970708F499C00250110962
:100E3000061B170B019311936D937C93CF010E94B6
:100E400056068DC05B01A01AB10A4C01800E911E9E
:100E5000A0915102B091520240E050E0E12CF12CFF
:100E6000109709F44AC0A815B905D1F56D907C908A
:100E70001197630182E0C80ED11CCA14DB0480F113
:100E8000A3014A195B096A0182E0C80ED11C1296BF
:100E9000BC9012971396AC91B5E0CB16D10440F0FC
:100EA000B282A38351834083D9016D937C930AC09E
:100EB0000E5F1F4FC301800F911FF9019183808343
:100EC000EB2DFA2FE114F10431F0D7011396FC93C6
:100ED000EE93129744C0F0935202E09351023FC048
:100EE0008D919C9111974817590708F4AC017D0129
:100EF00012960D90BC91A02DB3CF80914F0290918E
:100F0000500288159905E1F446175707C8F48091F7
:100F1000040190910501009741F48DB79EB740916F
:100F2000080150910901841B950BE817F907C8F4D3
:100F3000F0935002E0934F02F901718360830FC078
:100F4000CB010E94C1057C01009759F0A801BE01A8
:100F50000E94BD07CE010E945606C70104C0CE0103
:100F600002C080E090E0CDB7DEB7EEE00C94A405BF
:100F700081E090E0F8940C94CD07FB01DC0102C005
:100F800001900D9241505040D8F70895FB01DC01CB
:0E0F900001900D920020E1F70895F894FFCF34
:100F9E00CE02CE0200005302800000000000C0010D
:100FAE00290158010702890167017B0141542B4336
:100FBE00495053544152543D22544350222C2261E5
:100FCE0070692E7468696E67737065616B2E636FDE
:100FDE006D222C3830000D0A0041542B43495053DA
:100FEE00454E443D37340047455420687474707341
:100FFE003A2F2F6170692E7468696E677370656120
:10100E006B2E636F6D2F7570646174653F617069CF
:10101E005F6B65793D5A54465A305749484C4F419B
:0E102E004F544C4951266669656C64383D008C
:00000001FF
